{
  "_format": "hh-sol-artifact-1",
  "contractName": "Escrow",
  "sourceName": "contracts/Escrow.sol",
  "abi": [
    {
      "inputs": [],
      "stateMutability": "nonpayable",
      "type": "constructor"
    },
    {
      "anonymous": false,
      "inputs": [
        {
          "indexed": true,
          "internalType": "address",
          "name": "depositor",
          "type": "address"
        },
        {
          "indexed": false,
          "internalType": "uint256",
          "name": "amount",
          "type": "uint256"
        }
      ],
      "name": "Deposit",
      "type": "event"
    },
    {
      "anonymous": false,
      "inputs": [
        {
          "indexed": true,
          "internalType": "address",
          "name": "owner",
          "type": "address"
        },
        {
          "indexed": false,
          "internalType": "uint256",
          "name": "amount",
          "type": "uint256"
        }
      ],
      "name": "Withdraw",
      "type": "event"
    },
    {
      "inputs": [],
      "name": "balance",
      "outputs": [
        {
          "internalType": "uint256",
          "name": "",
          "type": "uint256"
        }
      ],
      "stateMutability": "view",
      "type": "function"
    },
    {
      "inputs": [],
      "name": "deposit",
      "outputs": [],
      "stateMutability": "payable",
      "type": "function"
    },
    {
      "inputs": [
        {
          "internalType": "address",
          "name": "",
          "type": "address"
        }
      ],
      "name": "deposits",
      "outputs": [
        {
          "internalType": "uint256",
          "name": "",
          "type": "uint256"
        }
      ],
      "stateMutability": "view",
      "type": "function"
    },
    {
      "inputs": [],
      "name": "owner",
      "outputs": [
        {
          "internalType": "address",
          "name": "",
          "type": "address"
        }
      ],
      "stateMutability": "view",
      "type": "function"
    },
    {
      "inputs": [],
      "name": "withdraw",
      "outputs": [],
      "stateMutability": "nonpayable",
      "type": "function"
    }
  ],
  "bytecode": "0x608060405234801561001057600080fd5b50336000806101000a81548173ffffffffffffffffffffffffffffffffffffffff021916908373ffffffffffffffffffffffffffffffffffffffff1602179055506106bb806100606000396000f3fe60806040526004361061004a5760003560e01c80633ccfd60b1461004f5780638da5cb5b14610066578063b69ef8a814610091578063d0e30db0146100bc578063fc7e286d146100c6575b600080fd5b34801561005b57600080fd5b50610064610103565b005b34801561007257600080fd5b5061007b610271565b6040516100889190610506565b60405180910390f35b34801561009d57600080fd5b506100a6610295565b6040516100b39190610581565b60405180910390f35b6100c461029d565b005b3480156100d257600080fd5b506100ed60048036038101906100e891906103b3565b610386565b6040516100fa9190610581565b60405180910390f35b60008054906101000a900473ffffffffffffffffffffffffffffffffffffffff1673ffffffffffffffffffffffffffffffffffffffff163373ffffffffffffffffffffffffffffffffffffffff1614610191576040517f08c379a000000000000000000000000000000000000000000000000000000000815260040161018890610521565b60405180910390fd5b600047116101d4576040517f08c379a00000000000000000000000000000000000000000000000000000000081526004016101cb90610541565b60405180910390fd5b60004790503373ffffffffffffffffffffffffffffffffffffffff166108fc829081150290604051600060405180830381858888f1935050505015801561021f573d6000803e3d6000fd5b503373ffffffffffffffffffffffffffffffffffffffff167f884edad9ce6fa2440d8a54cc123490eb96d2768479d49ff9c7366125a9424364826040516102669190610581565b60405180910390a250565b60008054906101000a900473ffffffffffffffffffffffffffffffffffffffff1681565b600047905090565b600034116102e0576040517f08c379a00000000000000000000000000000000000000000000000000000000081526004016102d790610561565b60405180910390fd5b34600160003373ffffffffffffffffffffffffffffffffffffffff1673ffffffffffffffffffffffffffffffffffffffff168152602001908152602001600020600082825461032f91906105ad565b925050819055503373ffffffffffffffffffffffffffffffffffffffff167fe1fffcc4923d04b559f4d29a8bfc6cda04eb5b0d3c460751c2402c5c5cc9109c3460405161037c9190610581565b60405180910390a2565b60016020528060005260406000206000915090505481565b6000813590506103ad8161066e565b92915050565b6000602082840312156103c557600080fd5b60006103d38482850161039e565b91505092915050565b6103e581610603565b82525050565b60006103f860228361059c565b91507f4f6e6c79206f776e65722063616e2063616c6c20746869732066756e6374696f60008301527f6e2e0000000000000000000000000000000000000000000000000000000000006020830152604082019050919050565b600061045e60188361059c565b91507f436f6e74726163742062616c616e6365206973207a65726f00000000000000006000830152602082019050919050565b600061049e60228361059c565b91507f4465706f736974206d7573742062652067726561746572207468616e207a657260008301527f6f2e0000000000000000000000000000000000000000000000000000000000006020830152604082019050919050565b61050081610635565b82525050565b600060208201905061051b60008301846103dc565b92915050565b6000602082019050818103600083015261053a816103eb565b9050919050565b6000602082019050818103600083015261055a81610451565b9050919050565b6000602082019050818103600083015261057a81610491565b9050919050565b600060208201905061059660008301846104f7565b92915050565b600082825260208201905092915050565b60006105b882610635565b91506105c383610635565b9250827fffffffffffffffffffffffffffffffffffffffffffffffffffffffffffffffff038211156105f8576105f761063f565b5b828201905092915050565b600061060e82610615565b9050919050565b600073ffffffffffffffffffffffffffffffffffffffff82169050919050565b6000819050919050565b7f4e487b7100000000000000000000000000000000000000000000000000000000600052601160045260246000fd5b61067781610603565b811461068257600080fd5b5056fea2646970667358221220e75a6241313cc1321452787f264a938cb223a96b1f5e7a7266ac97677453025064736f6c63430008000033",
  "linkReferences": {},
  "deployedLinkReferences": {}
}